:020000040000FA
:10000000F8280030240092002830240095000030A9
:1000100024009400183021008E04080024001614D7
:10002000161810280800240016151619152808009F
:1000300024007A309100240014191C280800161B93
:100040001F2808002400961596192428080024006B
:1000500011082000A80008002400110823009A00BD
:100060002000111A312808002000260824009100E1
:1000700024001419392808002000250824009100C4
:1000800024001419412808002400961200000000E2
:100090001616080024009616000000001616080028
:1000A0002400A130910024001419542808002400D1
:1000B000A0309100240014195B2808000E2057205E
:1000C0001F203C201F2034201F20132008000E205A
:1000D00057201F2000302000A5003C201F200E20AC
:1000E00050201F2022202720442020002808200004
:1000F000B400222027204420200028082000B5003A
:10010000222027204A20200028082000B6001320A3
:1001100008000130200034022000A600200000303A
:10012000A5005E20080020000230A000A00B962849
:10013000A10B9428080020005130A1009320A20BAD
:100140009B28080020000230900020000130A2000F
:100150009B2020000030900020000130A2009B2056
:1001600020000230900020000130A2009B202000DF
:1001700000309000080008002100003099000800BD
:10018000210000309000210003308C00230001305A
:100190008C00080020006430B10008002200963076
:1001A00091002200203092002200C4309700171FD7
:1001B000D728080020000C150000080020000C11B2
:1001C000000008000F302000A5000E2057201F203F
:1001D0003C201F200E2050201F20222027204A20B4
:1001E000132020000130A802A808031D01340034A8
:1001F000BB20BC20C020CE2005210120E2200038F9
:10020000031D0D21A220640002291C30210097004B
:0C0210000800031AA220B020080008001B
:020000040001F9
:02000E00F4F705
:02001000FFFFF0
:00000001FF
